{
  "contracts/Calculator.sol": {
    "Calculator": {
      "abi": [
        {
          "inputs": [
            {
              "internalType": "uint256",
              "name": "Nb1",
              "type": "uint256"
            },
            {
              "internalType": "uint256",
              "name": "Nb2",
              "type": "uint256"
            }
          ],
          "name": "add",
          "outputs": [
            {
              "internalType": "uint256",
              "name": "",
              "type": "uint256"
            }
          ],
          "stateMutability": "pure",
          "type": "function"
        },
        {
          "inputs": [
            {
              "internalType": "uint256",
              "name": "Nb1",
              "type": "uint256"
            },
            {
              "internalType": "uint256",
              "name": "Nb2",
              "type": "uint256"
            }
          ],
          "name": "div",
          "outputs": [
            {
              "internalType": "uint256",
              "name": "",
              "type": "uint256"
            }
          ],
          "stateMutability": "pure",
          "type": "function"
        },
        {
          "inputs": [
            {
              "internalType": "uint256",
              "name": "Nb1",
              "type": "uint256"
            },
            {
              "internalType": "uint256",
              "name": "Nb2",
              "type": "uint256"
            }
          ],
          "name": "mod",
          "outputs": [
            {
              "internalType": "uint256",
              "name": "",
              "type": "uint256"
            }
          ],
          "stateMutability": "pure",
          "type": "function"
        },
        {
          "inputs": [
            {
              "internalType": "uint256",
              "name": "Nb1",
              "type": "uint256"
            },
            {
              "internalType": "uint256",
              "name": "Nb2",
              "type": "uint256"
            }
          ],
          "name": "mul",
          "outputs": [
            {
              "internalType": "uint256",
              "name": "",
              "type": "uint256"
            }
          ],
          "stateMutability": "pure",
          "type": "function"
        },
        {
          "inputs": [
            {
              "internalType": "uint256",
              "name": "Nb1",
              "type": "uint256"
            },
            {
              "internalType": "uint256",
              "name": "Nb2",
              "type": "uint256"
            }
          ],
          "name": "sum",
          "outputs": [
            {
              "internalType": "uint256",
              "name": "",
              "type": "uint256"
            }
          ],
          "stateMutability": "pure",
          "type": "function"
        }
      ],
      "evm": {
        "bytecode": {
          "linkReferences": {},
          "object": "608060405234801561001057600080fd5b50610430806100206000396000f3fe608060405234801561001057600080fd5b50600436106100575760003560e01c8063771602f71461005c578063a391c15b1461008c578063c8a4ac9c146100bc578063cad0899b146100ec578063f43f523a1461011c575b600080fd5b610076600480360381019061007191906101cf565b61014c565b604051610083919061021a565b60405180910390f35b6100a660048036038101906100a191906101cf565b610162565b6040516100b3919061021a565b60405180910390f35b6100d660048036038101906100d191906101cf565b610178565b6040516100e3919061021a565b60405180910390f35b610106600480360381019061010191906101cf565b61018e565b604051610113919061021a565b60405180910390f35b610136600480360381019061013191906101cf565b6101a4565b604051610143919061021a565b60405180910390f35b6000818361015a9190610235565b905092915050565b60008183610170919061028b565b905092915050565b6000818361018691906102bc565b905092915050565b6000818361019c9190610316565b905092915050565b600081836101b29190610354565b905092915050565b6000813590506101c9816103e3565b92915050565b600080604083850312156101e257600080fd5b60006101f0858286016101ba565b9250506020610201858286016101ba565b9150509250929050565b6102148161034a565b82525050565b600060208201905061022f600083018461020b565b92915050565b60006102408261034a565b915061024b8361034a565b9250827fffffffffffffffffffffffffffffffffffffffffffffffffffffffffffffffff038211156102805761027f610385565b5b828201905092915050565b60006102968261034a565b91506102a18361034a565b9250826102b1576102b06103b4565b5b828204905092915050565b60006102c78261034a565b91506102d28361034a565b9250817fffffffffffffffffffffffffffffffffffffffffffffffffffffffffffffffff048311821515161561030b5761030a610385565b5b828202905092915050565b60006103218261034a565b915061032c8361034a565b92508282101561033f5761033e610385565b5b828203905092915050565b6000819050919050565b600061035f8261034a565b915061036a8361034a565b92508261037a576103796103b4565b5b828206905092915050565b7f4e487b7100000000000000000000000000000000000000000000000000000000600052601160045260246000fd5b7f4e487b7100000000000000000000000000000000000000000000000000000000600052601260045260246000fd5b6103ec8161034a565b81146103f757600080fd5b5056fea2646970667358221220901bd240023905d51135c49fc7c3c34a8da766e441935a6d0aceea518bf6923964736f6c63430008040033",
          "opcodes": "PUSH1 0x80 PUSH1 0x40 MSTORE CALLVALUE DUP1 ISZERO PUSH2 0x10 JUMPI PUSH1 0x0 DUP1 REVERT JUMPDEST POP PUSH2 0x430 DUP1 PUSH2 0x20 PUSH1 0x0 CODECOPY PUSH1 0x0 RETURN INVALID PUSH1 0x80 PUSH1 0x40 MSTORE CALLVALUE DUP1 ISZERO PUSH2 0x10 JUMPI PUSH1 0x0 DUP1 REVERT JUMPDEST POP PUSH1 0x4 CALLDATASIZE LT PUSH2 0x57 JUMPI PUSH1 0x0 CALLDATALOAD PUSH1 0xE0 SHR DUP1 PUSH4 0x771602F7 EQ PUSH2 0x5C JUMPI DUP1 PUSH4 0xA391C15B EQ PUSH2 0x8C JUMPI DUP1 PUSH4 0xC8A4AC9C EQ PUSH2 0xBC JUMPI DUP1 PUSH4 0xCAD0899B EQ PUSH2 0xEC JUMPI DUP1 PUSH4 0xF43F523A EQ PUSH2 0x11C JUMPI JUMPDEST PUSH1 0x0 DUP1 REVERT JUMPDEST PUSH2 0x76 PUSH1 0x4 DUP1 CALLDATASIZE SUB DUP2 ADD SWAP1 PUSH2 0x71 SWAP2 SWAP1 PUSH2 0x1CF JUMP JUMPDEST PUSH2 0x14C JUMP JUMPDEST PUSH1 0x40 MLOAD PUSH2 0x83 SWAP2 SWAP1 PUSH2 0x21A JUMP JUMPDEST PUSH1 0x40 MLOAD DUP1 SWAP2 SUB SWAP1 RETURN JUMPDEST PUSH2 0xA6 PUSH1 0x4 DUP1 CALLDATASIZE SUB DUP2 ADD SWAP1 PUSH2 0xA1 SWAP2 SWAP1 PUSH2 0x1CF JUMP JUMPDEST PUSH2 0x162 JUMP JUMPDEST PUSH1 0x40 MLOAD PUSH2 0xB3 SWAP2 SWAP1 PUSH2 0x21A JUMP JUMPDEST PUSH1 0x40 MLOAD DUP1 SWAP2 SUB SWAP1 RETURN JUMPDEST PUSH2 0xD6 PUSH1 0x4 DUP1 CALLDATASIZE SUB DUP2 ADD SWAP1 PUSH2 0xD1 SWAP2 SWAP1 PUSH2 0x1CF JUMP JUMPDEST PUSH2 0x178 JUMP JUMPDEST PUSH1 0x40 MLOAD PUSH2 0xE3 SWAP2 SWAP1 PUSH2 0x21A JUMP JUMPDEST PUSH1 0x40 MLOAD DUP1 SWAP2 SUB SWAP1 RETURN JUMPDEST PUSH2 0x106 PUSH1 0x4 DUP1 CALLDATASIZE SUB DUP2 ADD SWAP1 PUSH2 0x101 SWAP2 SWAP1 PUSH2 0x1CF JUMP JUMPDEST PUSH2 0x18E JUMP JUMPDEST PUSH1 0x40 MLOAD PUSH2 0x113 SWAP2 SWAP1 PUSH2 0x21A JUMP JUMPDEST PUSH1 0x40 MLOAD DUP1 SWAP2 SUB SWAP1 RETURN JUMPDEST PUSH2 0x136 PUSH1 0x4 DUP1 CALLDATASIZE SUB DUP2 ADD SWAP1 PUSH2 0x131 SWAP2 SWAP1 PUSH2 0x1CF JUMP JUMPDEST PUSH2 0x1A4 JUMP JUMPDEST PUSH1 0x40 MLOAD PUSH2 0x143 SWAP2 SWAP1 PUSH2 0x21A JUMP JUMPDEST PUSH1 0x40 MLOAD DUP1 SWAP2 SUB SWAP1 RETURN JUMPDEST PUSH1 0x0 DUP2 DUP4 PUSH2 0x15A SWAP2 SWAP1 PUSH2 0x235 JUMP JUMPDEST SWAP1 POP SWAP3 SWAP2 POP POP JUMP JUMPDEST PUSH1 0x0 DUP2 DUP4 PUSH2 0x170 SWAP2 SWAP1 PUSH2 0x28B JUMP JUMPDEST SWAP1 POP SWAP3 SWAP2 POP POP JUMP JUMPDEST PUSH1 0x0 DUP2 DUP4 PUSH2 0x186 SWAP2 SWAP1 PUSH2 0x2BC JUMP JUMPDEST SWAP1 POP SWAP3 SWAP2 POP POP JUMP JUMPDEST PUSH1 0x0 DUP2 DUP4 PUSH2 0x19C SWAP2 SWAP1 PUSH2 0x316 JUMP JUMPDEST SWAP1 POP SWAP3 SWAP2 POP POP JUMP JUMPDEST PUSH1 0x0 DUP2 DUP4 PUSH2 0x1B2 SWAP2 SWAP1 PUSH2 0x354 JUMP JUMPDEST SWAP1 POP SWAP3 SWAP2 POP POP JUMP JUMPDEST PUSH1 0x0 DUP2 CALLDATALOAD SWAP1 POP PUSH2 0x1C9 DUP2 PUSH2 0x3E3 JUMP JUMPDEST SWAP3 SWAP2 POP POP JUMP JUMPDEST PUSH1 0x0 DUP1 PUSH1 0x40 DUP4 DUP6 SUB SLT ISZERO PUSH2 0x1E2 JUMPI PUSH1 0x0 DUP1 REVERT JUMPDEST PUSH1 0x0 PUSH2 0x1F0 DUP6 DUP3 DUP7 ADD PUSH2 0x1BA JUMP JUMPDEST SWAP3 POP POP PUSH1 0x20 PUSH2 0x201 DUP6 DUP3 DUP7 ADD PUSH2 0x1BA JUMP JUMPDEST SWAP2 POP POP SWAP3 POP SWAP3 SWAP1 POP JUMP JUMPDEST PUSH2 0x214 DUP2 PUSH2 0x34A JUMP JUMPDEST DUP3 MSTORE POP POP JUMP JUMPDEST PUSH1 0x0 PUSH1 0x20 DUP3 ADD SWAP1 POP PUSH2 0x22F PUSH1 0x0 DUP4 ADD DUP5 PUSH2 0x20B JUMP JUMPDEST SWAP3 SWAP2 POP POP JUMP JUMPDEST PUSH1 0x0 PUSH2 0x240 DUP3 PUSH2 0x34A JUMP JUMPDEST SWAP2 POP PUSH2 0x24B DUP4 PUSH2 0x34A JUMP JUMPDEST SWAP3 POP DUP3 PUSH32 0xFFFFFFFFFFFFFFFFFFFFFFFFFFFFFFFFFFFFFFFFFFFFFFFFFFFFFFFFFFFFFFFF SUB DUP3 GT ISZERO PUSH2 0x280 JUMPI PUSH2 0x27F PUSH2 0x385 JUMP JUMPDEST JUMPDEST DUP3 DUP3 ADD SWAP1 POP SWAP3 SWAP2 POP POP JUMP JUMPDEST PUSH1 0x0 PUSH2 0x296 DUP3 PUSH2 0x34A JUMP JUMPDEST SWAP2 POP PUSH2 0x2A1 DUP4 PUSH2 0x34A JUMP JUMPDEST SWAP3 POP DUP3 PUSH2 0x2B1 JUMPI PUSH2 0x2B0 PUSH2 0x3B4 JUMP JUMPDEST JUMPDEST DUP3 DUP3 DIV SWAP1 POP SWAP3 SWAP2 POP POP JUMP JUMPDEST PUSH1 0x0 PUSH2 0x2C7 DUP3 PUSH2 0x34A JUMP JUMPDEST SWAP2 POP PUSH2 0x2D2 DUP4 PUSH2 0x34A JUMP JUMPDEST SWAP3 POP DUP2 PUSH32 0xFFFFFFFFFFFFFFFFFFFFFFFFFFFFFFFFFFFFFFFFFFFFFFFFFFFFFFFFFFFFFFFF DIV DUP4 GT DUP3 ISZERO ISZERO AND ISZERO PUSH2 0x30B JUMPI PUSH2 0x30A PUSH2 0x385 JUMP JUMPDEST JUMPDEST DUP3 DUP3 MUL SWAP1 POP SWAP3 SWAP2 POP POP JUMP JUMPDEST PUSH1 0x0 PUSH2 0x321 DUP3 PUSH2 0x34A JUMP JUMPDEST SWAP2 POP PUSH2 0x32C DUP4 PUSH2 0x34A JUMP JUMPDEST SWAP3 POP DUP3 DUP3 LT ISZERO PUSH2 0x33F JUMPI PUSH2 0x33E PUSH2 0x385 JUMP JUMPDEST JUMPDEST DUP3 DUP3 SUB SWAP1 POP SWAP3 SWAP2 POP POP JUMP JUMPDEST PUSH1 0x0 DUP2 SWAP1 POP SWAP2 SWAP1 POP JUMP JUMPDEST PUSH1 0x0 PUSH2 0x35F DUP3 PUSH2 0x34A JUMP JUMPDEST SWAP2 POP PUSH2 0x36A DUP4 PUSH2 0x34A JUMP JUMPDEST SWAP3 POP DUP3 PUSH2 0x37A JUMPI PUSH2 0x379 PUSH2 0x3B4 JUMP JUMPDEST JUMPDEST DUP3 DUP3 MOD SWAP1 POP SWAP3 SWAP2 POP POP JUMP JUMPDEST PUSH32 0x4E487B7100000000000000000000000000000000000000000000000000000000 PUSH1 0x0 MSTORE PUSH1 0x11 PUSH1 0x4 MSTORE PUSH1 0x24 PUSH1 0x0 REVERT JUMPDEST PUSH32 0x4E487B7100000000000000000000000000000000000000000000000000000000 PUSH1 0x0 MSTORE PUSH1 0x12 PUSH1 0x4 MSTORE PUSH1 0x24 PUSH1 0x0 REVERT JUMPDEST PUSH2 0x3EC DUP2 PUSH2 0x34A JUMP JUMPDEST DUP2 EQ PUSH2 0x3F7 JUMPI PUSH1 0x0 DUP1 REVERT JUMPDEST POP JUMP INVALID LOG2 PUSH5 0x6970667358 0x22 SLT KECCAK256 SWAP1 SHL 0xD2 BLOCKHASH MUL CODECOPY SDIV 0xD5 GT CALLDATALOAD 0xC4 SWAP16 0xC7 0xC3 0xC3 0x4A DUP14 0xA7 PUSH7 0xE441935A6D0ACE 0xEA MLOAD DUP12 0xF6 SWAP3 CODECOPY PUSH5 0x736F6C6343 STOP ADDMOD DIV STOP CALLER "
        },
        "methodIdentifiers": {
          "add(uint256,uint256)": "771602f7",
          "div(uint256,uint256)": "a391c15b",
          "mod(uint256,uint256)": "f43f523a",
          "mul(uint256,uint256)": "c8a4ac9c",
          "sum(uint256,uint256)": "cad0899b"
        }
      }
    }
  }
}